:020000040800F2
:100000000080012011030008190300081B030008E9
:100010001D0300081F030008210300080000000062
:1000200000000000000000000000000023030008A2
:10003000250300080000000027030008290300082A
:100040002B0300082B0300082B0300082B030008D8
:100050002B0300082B0300082B0300082B030008C8
:100060002B0300082B0300082B0300082B030008B8
:100070002B0300082B0300082B0300082B030008A8
:100080002B0300082B0300082B03000800000000CE
:100090000000000000000000000000002B0300082A
:1000A0002B0300082B0300082B0300082B03000878
:1000B0002B0300082B0300082B0300082B03000868
:1000C0002B0300082B0300082B0300082B03000858
:1000D0002B0300082B0300082B030008000000007E
:1000E0002B0300082B0300082B030008000000006E
:1000F0000000000000000000000000002B030008CA
:10010000000000002B0300082B0300082B0300084D
:1001100000000000000000000000000000000000DF
:100120002B0300082B0300082B0300082B030008F7
:100130002B03000800000000000000000000000089
:100140000000000000000000000000002B03000879
:100150002B0300082B0300082B0300082B030008C7
:100160002B0300082B030008000000000000000023
:10017000000000000000000000000000000000007F
:10018000000000002B030008000000000000000039
:100190002B030008DFF81CD000F0C6FC00F0CAF802
:1001A00000F0DEF90048004709100008AFF30080B6
:1001B00000F0AAFA0080012000214F4802F074F8F4
:1001C0005FE04E4801F0DEFF0E2812D14A4802F0EF
:1001D00093F840F001042146474802F065F89FED8E
:1001E000480A03F0B1F900BF444801F0CBFF0E28E4
:1001F000FAD0424801F0C6FF0D2812D13E4802F065
:100200007BF800F0FE0421463B4802F04DF89FEDDC
:100210003C0A03F099F900BF384801F0B3FF0D28FC
:10022000FAD0364801F0AEFF0B2812D1324802F066
:1002300063F840F0020421462F4802F035F89FEDA4
:10024000300A03F081F900BF2C4801F09BFF0B2816
:10025000FAD02A4801F096FF072812D1264802F06A
:100260004BF800F0FD042146234802F01DF89FEDF5
:10027000240A03F069F900BF204801F083FF072832
:10028000FAD09EE710B58EB04FF0FF3009900A907B
:100290000B900C90059006900790089001900290AA
:1002A000039004900A201323152214210090134870
:1002B00001F0FAFE0446134A134900F061F94FF0C9
:1002C000FF3009900A900B900C90059006900790D3
:1002D00008900190029003900490034609220521A2
:1002E0000090054801F072FF0446064A074900F0F5
:1002F00047F90EB010BD000018020020D401002004
:10030000CDCC4C3E000000085D2100088122000891
:100310000648804706480047FEE7FEE7FEE7FEE79F
:10032000FEE7FEE7FEE7FEE7FEE7FEE7FD1C00084E
:1003300095010008042104A002F002FD03490860B1
:1003400003490860FFF72CFF3A7474008C03002007
:100350007803002010B5431A934209D283188818F5
:1003600003E010F8011D03F8011D521EF9D210BD63
:1003700040EA01039B0703D009E008C9121F08C027
:10038000042AFAD203E011F8013B00F8013B521EA7
:10039000F9D210BD421C10F8011B0029FBD1801AB4
:1003A000704710B5002200E0521C835C8C5CA342B5
:1003B00001D1002BF8D1D8B2E1B2401A10BD30B54E
:1003C00005460020034600E05B1C934205D2EC5C2E
:1003D000C85C201A01D1002CF6D130BD0FB400B595
:1003E0008DB010A909900B9000914FF0FF300A904A
:1003F00000200C9005480690054807906A4609A819
:100400000F9900F045F90DB05DF814FBAD0600083A
:10041000CB0600082DE9FF5F1D464FF0FF3BD5E9F5
:10042000014691465F464FF00008A9697F1C01987C
:100430008847296A824688470028F6D1BAF1FF3FEB
:100440000CD024F4C064002E19DD600614D5BAF176
:100450002B0F09D0BAF12D0F0ED103E0584604B08E
:10046000BDE8F09F44F48064A9697F1C0198884727
:10047000761E8246002E02DDBAF1300F03D0B9F1AC
:10048000000F26D032E0A969761E44F400747F1C68
:10049000019888478246002E05DDBAF1780F06D014
:1004A000BAF1580F03D0B9F1000F10D01EE0B9F126
:1004B000000F02D0B9F1100F18D1A969761E24F4EB
:1004C00000747F1C019888478246102002E00820B3
:1004D00000E00A20814609E008FB0908A969761EA8
:1004E00044F400747F1C019888478246002E05DD85
:1004F0004946504600F0B8F80028EDDAE96901985D
:100500008847A00502D46FF00100A8E7E00725D1D5
:10051000600613D5600502D5C8F1000000E0404632
:1005200029680A1D2A600968220501D5087015E0AE
:10053000220701D5088011E008600FE02868011D3E
:1005400029600068210502D580F8008006E02107B7
:1005500002D5A0F8008001E0C0F8008038467EE7B0
:1005600070B5054C054D03E0206820448047241DEC
:10057000AC42F9D170BD00009039000894390008F0
:100580002DE9F041074615460E46102002F052FDB7
:1005900004000AD06760C4E9026500F0A7F80168AA
:1005A000216004600020BDE8F0810120FBE700F03D
:1005B00085BA38B505468DF800000C46086800235A
:1005C0000122694602F042FC10B14FF0FF3038BD05
:1005D000E068401CE060284638BD30B50B46014657
:1005E00000202022012409E021FA02F59D4205D3D2
:1005F00003FA02F5491B04FA02F52844151EA2F17C
:100600000102F1DC30BD2DE9F05F05460020924685
:100610009B4688460646814640241BE028464146C4
:100620004746224600F0A1FA53465A46C01A914165
:1006300010D311461846224600F088FA2D1A67EBAF
:1006400001084F4622460120002100F07FFA17EBF7
:1006500000094E41201EA4F10104DFDC484631466A
:100660002A464346BDE8F09F3A2800D2303820F0B1
:100670002002412A01D3A2F13700884201D34FF072
:10068000FF307047026811441378016018467047C4
:10069000D160044951610449116200211161114680
:1006A00000F08ABA85060008AF0B0008426842B124
:1006B000016811F8013B23B1521EC0E9001218462F
:1006C00070470121C160881E704742685AB1C368F3
:1006D000016843B983688B4205D0491E521CC0E9AA
:1006E0000012002070474FF0FF30704700487047FD
:1006F000BC010020034870470248001D011F8860AC
:10070000001D7047C00100202DE9F0410646FFF7AB
:10071000EDFF8046454613E016B1E068B0420ED1C9
:1007200020682860D4E90101D8F800708847204685
:1007300002F0D8FBD8F80000B842EBD100E0254623
:100740002C68002CE8D1BDE8F0812DE9FE4F8046F1
:1007500081EA0300C00F0C46009021F0004123F015
:100760000045B8EB0200A94105D24046214690461B
:100770001C460B46024623F00040104347D0270D8D
:10078000C7F30A00C3F30A510290401A01904028AF
:100790006BDAC3F3130040F4801B0098924620B13B
:1007A0000023D2EB030A63EB0B0B01985946C0F10F
:1007B0004002504600F0CAF906460D4650465946DA
:1007C000019A00F0E2F910EB08006141002487EA89
:1007D000115284EAE7731A4340D0009A62B3019A37
:1007E000012A4FEA075215DC001B61EB02014FF0B2
:1007F000004202EA0752CDE90042001C41F5801197
:1008000032462B4600F080FB03B0BDE8F08F404637
:100810002146F9E7001B61EB0201001C41F5801342
:1008200000185B412018A2F5001747EB030140EACE
:10083000D570B6196D4111E06D084FEA360645EAEC
:10084000C0754FEA0752001B61EB0201001C41F525
:10085000801149084FEA30000019514132462B46B9
:1008600003B0BDE8F04F00F040BB0098012240000B
:100870000023D0EB020263EBE073009821464FEABD
:10088000E074B8EB000061EB0401E9E783F000439A
:100890005BE781F0004158E72DE9FE4F81EA030450
:1008A00004F0004421F0004100944FF0000B23F0CD
:1008B000004350EA01045ED052EA03045BD0C3F364
:1008C0000A54C1F30A552C44A4F2F3340194A0FB5A
:1008D0000254C1F3130141F48011C3F3130343F431
:1008E000801301FB024400FB034E840A970A44EA8A
:1008F000815447EA8357A4FB076802958D0A05FBDC
:1009000007854FEA932C04FB0C542705029D4FEA00
:10091000065847EA1637B5EB08056EEB070C870E4D
:10092000920E47EA811742EA8312A7FB0201B6EB57
:100930000B0164EB00042B0D43EA0C335E1844EB0F
:100940001C50DA465146E7FB0201C5F313044FEA97
:100950000B3343EA14534FEA0432019C43EA060383
:10096000A4F10C040294009CCDE900B400F0CCFA90
:1009700003B0BDE8F08F00200146F9E72DE9F04D06
:1009800081EA030404F0004B21F0004514464FF0C7
:10099000000A23F0004150EA050220D054EA010287
:1009A0001DD0C5F30A570246C5F31303C1F3130064
:1009B000C1F30A5640F4801543F48013A7EB0608F0
:1009C000101BD64608F2FD3873EB050002D308F180
:1009D000010801E092185B41B8F1000F03DA002032
:1009E0000146BDE8F08D00204FF480110646844694
:1009F0000EE0171B73EB050705D3121B63EB050312
:100A000006434CEA010C49084FEA300092185B415A
:100A100050EA0107EDD152EA030012D082EA040045
:100A200083EA0501084305D0101BAB4106D2012221
:100A3000002306E000224FF0004302E06FF00102C5
:100A400053101AEB06004CEB085110EB0A0041EB77
:100A50000B01BDE8F04D00F048BAC1F30A52C1F3F2
:100A6000130140F2FF3341F480119A4202DA002070
:100A70000146704740F233439A42A2F2334202DC0D
:100A8000524200F072B800F061B8000030B5041EA8
:100A900071F1000404DB4FF00044404264EB0101BB
:100AA000141E73F1000405DB1C464FF00043524254
:100AB00063EB0403994208BF904230BD10B500F0CB
:100AC0000EF8016919B100220261884701E08068CF
:100AD0008047AFF30080000010B5AFF3008070B521
:100AE000FFF70AFE04680546A4B9202002F0A2FA26
:100AF000040011D0094900202C60C4E90001084914
:100B0000A1602073206160610649A06109B100F015
:100B100049FAE061204670BDAFF30080000000009C
:100B2000D90A000800000000064C074D06E0E06806
:100B300040F0010394E8070098471034AC42F6D324
:100B4000FFF72CFB7039000890390008202A04DBDD
:100B5000203A00FA02F1002070479140C2F12003D0
:100B600020FA03F3194390407047202A04DB203A0F
:100B700021FA02F00021704721FA02F3D040C2F1BD
:100B800020029140084319467047202A06DBCB1704
:100B9000203A41FA02F043EAE07306E041FA02F338
:100BA000D040C2F120029140084319467047C0B2BC
:100BB0004FF4F05100F014BA2DE9F34F8BB04FF021
:100BC000000801F10C000C464FF0010B46460DF1F8
:100BD000080A01906269012101989047051E2DD0F5
:100BE000252D2CD0216A8847C0B162690121019866
:100BF0009047216A88470028F7D1411E6269019811
:100C0000904700E0761CA1690B988847216A8847C5
:100C10000028F7D1E1690B988847DBE7A1690B98B9
:100C200088470746A84201D1761CD3E7E1690B98B3
:100C300088477F1C02D1B8F1000F6FD047E1002731
:100C400062693D463946019890472A2804D1626975
:100C50000121019890470125DFF8889262690121FE
:100C600001989047A0F130010A290AD24F45E5DCEE
:100C700007EB870100EB4107303FDFD445F010055B
:100C8000ECE7E90601D46FF000476C280AD04C2845
:100C900014D0682815D06A280DD074281CD07A2862
:100CA0001AD01DE062690121019890476C2802D09A
:100CB00045F0040514E045F002050DE045F020057F
:100CC0000AE06269012101989047682802D045F046
:100CD000080505E045F40065626901210198904727
:100CE000C4E9015765283DD019DC58287AD00CDCBE
:100CF000452837D004DC252826D0412831D131E0E1
:100D000046282FD047282CD12CE05B2877D06128AB
:100D100028D063287CD0642823D15AE0D1E06F2802
:100D200048D008DC66281DD067281BD0692821D050
:100D30006E2816D127E0702845D0732868D0752812
:100D400047D078280DD14DE0A1690B98884705461A
:100D500025283FF469AFE1690B9888476D1C3FF483
:100D60006AAFB4E023466A466FF001000B99AFF317
:100D700000809FE045F040006060A80723464FF0E8
:100D8000000236D43EE0E8077FF447AF2068011D3B
:100D900021600068290501D506701BE7290701D5E8
:100DA000068017E7A90703D5F117C0E9006111E72D
:100DB00006600FE745F040006060A80723464FF04B
:100DC000080216D41EE040F60E0125EA010060601C
:100DD00016E045F040006060A80723464FF00A0285
:100DE00007D40FE045F040006060A80708D523460F
:100DF00010226FF001000B99AFF300805AE007E07A
:100E0000234610226FF001000B99FFF703FB51E01E
:100E10004FF000094F464B46632802D05B2807D0AD
:100E200041E02079C00601D40120A06001273AE00A
:100E300062690121019890475E2805D14FF00109B0
:100E40006269494601989047216939B900210A46EB
:100E5000534643F82120491C0829FADBB0B3216925
:100E600069B9C11700EBD16253110AEB830122F07B
:100E70001F02821A01200B68904003430B606269D5
:100E80000121019890475D28E8D1B9F1000F09D000
:100E90000020514651F82020D24341F82020401C28
:100EA0000828F7DB02AB224600976FF001000B9990
:100EB000AFF3008000280CDA401C08D1BBF1000F12
:100EC00005D04FF0FF300DB0BDE8F08FFFE7404692
:100ED000F9E7E90701D108F1010806444FF0000BDA
:100EE00078E60000CCCCCC0C704710B5141E73F122
:100EF000000408DA401C41F1000192185B411A43DA
:100F000001D120F0010010BD2DE9F04D92469B4625
:100F100011B1B1FA81F202E0B0FA80F220329046CB
:100F2000FFF714FE04460F4640EA0A0041EA0B01AF
:100F300053465A46084313D0114653EA010019D0CC
:100F4000C8F140025046FFF710FE05460E465046D7
:100F500059464246FFF7FAFD084305D0012004E058
:100F600020463946BDE8F08D0020054346EAE0768C
:100F70002C4337430A986305E40AA0EB08000022DB
:100F8000FD0A44EA47540A3002D500200146E9E749
:100F9000010510196941DDE9084500196941BDE8FD
:100FA000F04DA2E710B5882002F044F8002801D0E7
:100FB0000021017010BD802902D808B1017809B163
:100FC00000207047012100F8081B704718B100F19C
:100FD0000802914201D00020704700210170704743
:100FE0007F2801D9002208E0064A02EB5002C00720
:100FF000127800D1120902F00F020120904008403F
:10100000704700000F39000810B502F07AF802F0BE
:1010100077F8BDE81040FFF7CFB800002DE9F04F9A
:1010200000228A4EDFF828E201274FF0030A4FF032
:101030000F0800BF0B6807FA02F42340A34240F0F8
:10104000FF80D1F804C0BCF1020F18BFBCF1120F31
:1010500015D14FEAD20C00EB8C05D5F820904FEA61
:10106000427C4FEADC6C08FA0CFB29EA0B09D1F848
:1010700010B00BFA0CFC4CEA090CC5F820C0D0F8F3
:1010800000904FEA420C91F804B00AFA0CF50BF00C
:10109000030B29EA05090BFA0CFB4BEA0909C0F816
:1010A0000090D1F80490B9F1010F18BFB9F1020F07
:1010B00005D0B9F1110F18BFB9F1120F18D1D0F83E
:1010C0000890D1F80CB029EA05090BFA0CFB4BEAA1
:1010D0000909C0F80890D0F8049029EA040491F8AE
:1010E0000490C9F3001909FA02F949EA04044460BA
:1010F000C468AC438D6805FA0CFC4CEA040CC0F8DB
:101100000CC0D1F804C01CF0805F7CD0D6F800C0C1
:101110004CF4804CC6F800C022F0030CF444DCF818
:1011200000509407240F08FA04F925EA0905A0F1F4
:101130008049B9F5003948D0A0F18049B9F50139A5
:1011400008BF4FF0010940D0A0F18049B9F502393C
:1011500008BF4FF0020938D0A0F18049B9F5033932
:1011600008BF4FF0030930D0A0F18049B9F5043928
:1011700008BF4FF0040928D0A0F18049B9F505391E
:1011800008BF4FF0050920D0A0F18049B9F5063914
:1011900008BF4FF0060918D0A0F18049B9F507390A
:1011A00008BF4FF0070910D0A0F18049B9F5083900
:1011B00008BF4FF0080908D0A0F18049B9F50939F6
:1011C0000CBF4FF009094FF00A0909FA04F42C4347
:1011D000CCF800401F4CD4F800C04D682CEA030C3A
:1011E00015F4803F18BF4CEA030CC4F800C01A4C39
:1011F000D4F800C04D682CEA030C15F4003F18BF6A
:101200004CEA030C00E01BE0C4F800C0134CD4F817
:1012100000C04D682CEA030C15F4801F18BF4CEA7F
:10122000030CC4F800C00E4CD4F800C04D682CEA82
:10123000030C15F4001F18BF4CEA030CC4F800C0DF
:10124000521C102AFFF4F6AEBDE8F08F443802407D
:1012500008380140003C0140043C0140083C01408A
:101260000C3C0140014800687047000098010020D4
:1012700002480168491C0160704700009801002085
:101280000B4810B5016841F400710160016841F438
:1012900080610160016841F480710160032000F009
:1012A0005FF80F2000F006F800F058F8002010BD9D
:1012B000003C0240204810B5016841F0080101607F
:1012C0001E48016841F008010160016821F0080131
:1012D00001601C4C1A481D4920604FF0FF30E0604F
:1012E00019480068B0FBF1F0401E606000202061EA
:1012F000A0606061204600F0ABFB1549322000F091
:101300000DFC14494FF4802008600021204600F0B5
:10131000B9FB0421204600F0B5FB2068416A0E4A63
:10132000116001F57A7181632068C16841F00401A0
:10133000C160002010BD000040380240203802404B
:10134000000C00405C0200209C01002040420F0085
:101350004534000804E100E09401002070470000DB
:10136000074900F007000A684FF6FF031A4042EAF7
:10137000002040F0FD7040F0806008607047000081
:101380000CED00E02DE9F047DFF8EC8104468946DA
:10139000D8F800007A4E00F00F01784809F0FF0AF3
:1013A00041F28837494562D288F800A0D8F8001089
:1013B00001F00F0149457DD1217811F0020F05D0D0
:1013C0003168A26821F0F00111433160217811F0F9
:1013D000010F4BD06168012922D00068022924D076
:1013E00010F0020F66D0306820F003000843306030
:1013F000FFF738FF0546606801281AD002283068D8
:1014000000F00C0025D0002830D000BFFFF72AFFE5
:10141000401BB8425BD8306810F00C0FF6D18FE05B
:10142000006810F4003FDED187E010F0007FDAD1D1
:1014300083E0306800F00C00042817D0FFF712FF9B
:10144000401BB84243D8306800F00C000428F5D1A6
:1014500076E0082874D000BFFFF704FF401BB842B5
:1014600035D8306800F00C000828F5D168E0217804
:1014700011F0020F05D03168A26821F0F00111438C
:101480003160217811F0010F4FD06168012921D01E
:101490000068022923D010F0020F4ED0306820F0EF
:1014A000030008433060FFF7DDFE05466068012851
:1014B00019D000E041E00228306800F00C0022D092
:1014C00000B300BFFFF7CEFE401BB84229D903206E
:1014D000BDE8F087006810F4003FDFD12DE010F088
:1014E000007FDBD129E0306800F00C0004281CD01C
:1014F000FFF7B8FE401BB842E9D8306800F00C0096
:101500000428F5D111E008280FD000BFFFF7AAFE8C
:10151000401BB842DBD8306800F00C000828F5D139
:1015200003E0306810F00C0FCCD188F800A0D8F898
:10153000000000F00F00484502D00120BDE8F08710
:10154000207810F0040F05D03068E16820F4E050F6
:1015500008433060207810F0080F06D03068216909
:1015600020F4604040EAC10030600F20FFF7A2FE87
:101570000020BDE8F0870000003C02400038024037
:101580000838024030B42A4C206810F00C01294879
:101590003ED04FEA600C042908BF604638D00829C5
:1015A00036D1254A116801F03F0311684FF48005D8
:1015B00095FAA5F501F48001B5FA85F531FA05F53E
:1015C00047F6C0710BD0BCFBF3F013680B4091FAE7
:1015D000A1F1B1FA81F123FA01F148430AE0B0FB2D
:1015E000F3F013680B4091FAA1F1B1FA81F123FAFB
:1015F00001F1484311684FF4403292FAA2F201F42B
:101600004031B2FA82F2D140491C4900B0FBF1F0FE
:101610002168F02292FAA2F201F0F001B2FA82F20D
:10162000D140064A515CC8400549086030BC70474B
:10163000083802400024F400043802408C350008C9
:101640009C01002000B5FFF79DFF074909684FF492
:10165000E05292FAA2F201F4E051B2FA82F2D140E1
:10166000024A515CC84000BD083802408C35000871
:1016700000B5FFF787FF074909684FF4604292FA07
:10168000A2F201F46041B2FA82F2D140024A515C06
:10169000C84000BD083802408C3500082DE9F05FD5
:1016A0000446E34F0078A7F1040810F0010F4FF053
:1016B0000009A8F1040545D0386800F00C000428A2
:1016C00009D0386800F00C0008280DD1D8F80000C7
:1016D00010F4800F08D0286810F4003F1CBF606829
:1016E00001282FD000F0A1B9DFF848A38AF80090B4
:1016F000FFF7B8FD0646286810F4003F0AD000BF87
:10170000FFF7B0FD801B642800F21F81286810F4E9
:10171000003FF5D120798AF800006068012821D0C7
:10172000FFF7A0FD0646286810F4003F0AD000BF6E
:10173000FFF798FD801B642800F20781286810F4E9
:10174000003FF5D12078DFF8F0A210F0020F5ED054
:10175000386810F00C0F29D0386800F00C00082809
:1017600012D016E0FFF77EFD0646286810F4003F11
:10177000E8D100BFFFF776FD801B64287DD828687C
:1017800010F4003FF6D0DDE7D8F8000010F4800F29
:101790000CD0E06848B30120CAF80000FFF762FDF2
:1017A0000646286810F0020F09D011E0286810F0F2
:1017B000020F1CBFE068012829D000F036B9FFF7FE
:1017C00051FD801B642858D8286810F0020FF6D00D
:1017D0002868F82220F0F80192FAA2F22069B2FA01
:1017E00082F290400843286011E0CAF80090FFF7A9
:1017F00039FD0646286810F0020F08D0FFF732FDC9
:10180000801B642839D8286810F0020FF6D12078A0
:1018100010F0080F2AD08948894E616999B10121D9
:101820000160FFF71FFD8346306810F0020F1DD1E5
:10183000FFF718FDA0EB0B0064281ED8306810F0ED
:10184000020FF5D012E0C0F80090FFF70BFD8346C1
:10185000306810F0020F09D0FFF704FDA0EB0B0079
:10186000642872D8306810F0020FF5D1207810F09B
:10187000040F52D07348016800E066E041F08051E7
:101880000160DFF8C4B1DBF8000040F48070CBF8F1
:101890000000FFF7E7FC0646DBF8000010F4807F4D
:1018A0000AD100BFFFF7DEFC801B64284DD8DBF8AF
:1018B000000010F4807FF5D0DFF890B18BF8009035
:1018C000FFF7D0FC0646DBF8000010F0020F0AD04C
:1018D000FFF7C8FC801BB0F5FA7F36D8DBF80000B4
:1018E00010F0020FF4D1207A8BF80000A0680128D4
:1018F0002ED0FFF7B7FC0646DBF8000010F0020F11
:101900000BD000BFFFF7AEFC801BB0F5FA7F1CD8F0
:10191000DBF8000010F0020FF4D1A069F0B33968D1
:1019200001F00C01082977D00228CAF8609023D072
:10193000FFF798FC0446286810F0007F72D000BFC3
:10194000FFF790FC001B642868D90320BDE8F09FD6
:10195000FFF788FC0646DBF8000010F0020FDCD130
:10196000FFF780FC801BB0F5FA7FEED8DBF80000B3
:1019700010F0020FF4D0D0E7FFF774FC0646286899
:1019800010F0007F09D000BFFFF76CFC801B6428BB
:10199000DBD8286810F0007FF6D100E042E0D4E9FF
:1019A000070141EA000347F6C07191FAA1F1606AAC
:1019B000B1FA81F18840A16A4FF0FF3202EB510287
:1019C0004FF4403191FAA1F1B1FA81F102FA01F13B
:1019D00008434FF0706292FAA2F2E16AB2FA82F220
:1019E00018439140084340F00050C8F8000001201F
:1019F000CAF86000FFF736FC0446286810F0007F44
:101A000010D100BFFFF72EFC001B64289DD828686A
:101A100010F0007FF6D005E007E0FFE7286810F03F
:101A2000007F8DD10020BDE8F09F0120BDE8F09F30
:101A3000083802400238024000004742800E474208
:101A40007438024040380240007000407038024054
:101A5000002804BF0120704710B5044690F83900F3
:101A6000002804BF204600F00CF8022084F839005A
:101A7000211D206800F0C2F9012084F839000020FF
:101A800010BD70470268012303FA01F1136A8B430A
:101A90001362136A194311620168A1F18042B2F521
:101AA000803203D14A6C42F400424A640068016803
:101AB00041F00101016000207047002804BF0120AF
:101AC000704710B5044690F83900002804BF20463E
:101AD00000F022F8022084F839002068C16821F45F
:101AE0000051C160204600F0D3F92068016921F45B
:101AF000904101612068416921F02A01416120681B
:101B0000C16841F40051C160002084F83A0001200E
:101B100084F83900002010BD704700002DE9F04125
:101B2000184D0E4607462C682868B0F1006F23D187
:101B30002146C1F10050AC068210002AC4BF6522C4
:101B4000B2EBA00F05DC4FF4CA722046FEF702FC90
:101B50000FE008682060012004EB800351F820208A
:101B600044F8202001EB8002801C52685A606528EE
:101B7000F2D34FF00050286004EB87000664BDE804
:101B8000F081000008ED00E01C4910B50A6892B031
:101B900042F080520A601A490A6822F4404242F434
:101BA00000420A600121009100280EBF019105202A
:101BB000019002246005CDE90640082008904FF40A
:101BC000A870099004200A9007200B906846FFF740
:101BD00065FD80B90F20CDE90C040020E102CDE9BC
:101BE0000E01109002210CA8FFF7CCFB002802BFC9
:101BF000012012B010BD002012B010BD40380240CC
:101C00000070004010B500241449082820D2DFE8F5
:101C100000F0040A0F151F1F1F1A114C086840F02E
:101C20000100086017E00F4C086840F0020003E074
:101C30000D4C086840F0040008600CE00B4C08688C
:101C400040F00800F8E70A4C086840F08000F3E72D
:101C5000084801F02BF9204610BD00003038024042
:101C6000000002400004024000080240000C024054
:101C7000001C024020380008DFF86CC030B4DCF8EB
:101C800000001A4B10F00C01194806D05C10042912
:101C900008BF046002D008290CD00360DCF80010F3
:101CA000144AC1F30311515C026822FA01F1016088
:101CB00030BC704710490A68C2F380550A68002D8D
:101CC00002F03F0214BFB4FBF2F2B3FBF2F20B6876
:101CD0000968C3F388135A43C1F30141491C490001
:101CE000B2FBF1F10160D9E7083802400024F400AA
:101CF0009C0100209C3500080438024030B534486F
:101D000091B0016841F4700101603248016841F00E
:101D100001010160304900240C60016821F41021A8
:101D200021F080710160021D2C491160016821F4CD
:101D3000802101602A4804602A49500608602B4926
:101D400029480860FFF79CFA0120FFF71DFF0028D3
:101D500032D1FFF719FF00282ED12548016841F044
:101D6000805101602348016821F4404141F4004161
:101D700001600320009001200390019410200225AF
:101D800006950490CDE907404FF4A870099004200F
:101D90000A9007200B906846FFF780FC58B90F2087
:101DA000CDE90C05E802CDE90E4002210CA8109403
:101DB000FFF7E8FA00B1FEE70F48016841F00801BB
:101DC0000160016821F00801016011B030BD000020
:101DD00088ED00E00038024008380240103000244E
:101DE0000C38024008ED00E00024F4009C010020C3
:101DF00040380240007000402038024070B4026851
:101E00001F4BDFF880C0204C204D984218BFB0F126
:101E1000804F04D060451CBFA042A84203D14E6849
:101E200022F070023243984218BFB0F1804F14D0B4
:101E3000604518BFA04210D0A8421CBFA0F1804C42
:101E4000BCF5A03C09D0A0F1804CBCF5A23C1CBF65
:101E5000A0F1804CBCF5A43C05D1D1F80CC022F413
:101E600040724CEA020202608A68C2620A688262B8
:101E7000984204BF096901630121416170BC704748
:101E8000000001400004004000080040000C004039
:101E90002DE9F041044600680169E26821F44051EF
:101EA000114301612068C1682369A268D4F81CC08D
:101EB0001A43636921F4037143EA0C0321F41441CA
:101EC0001A431143C16020684169A26921F440713D
:101ED00011434161E2693226B2F5004F6F48704903
:101EE000704D226837D08A4218BF82427DD1FFF7F9
:101EF000BFFB00EBC00101EB001061688900B0FB83
:101F0000F1F0A5FB00104709FFF7B2FB00EBC001A1
:101F100001EB001061688900B0FBF1F8FFF7A8FB46
:101F200000EBC00101EB001061688900B0FBF1F02B
:101F3000A5FB001040096FF01801484308EB800032
:101F400006EB0010A5FB00102168400967F31F1085
:101F50008860BDE8F0818A4218BF824233D1FFF722
:101F600087FB00EBC00101EB001061684900B0FB8A
:101F7000F1F0A5FB00104709FFF77AFB00EBC00169
:101F800001EB001061684900B0FBF1F8FFF770FB4E
:101F900000EBC00101EB001061684900B0FBF1F0FB
:101FA000A5FB001040096FF01801484308EB8000C2
:101FB00006EB0010A5FB00102168400967F31F1015
:101FC0008860BDE8F081FFF73DFB00EBC00101EB4D
:101FD000001061684900B0FBF1F0A5FB0010470953
:101FE000FFF730FB00EBC00100E022E001EB001046
:101FF00061684900B0FBF1F8FFF724FB00EBC0017A
:1020000001EB001061684900B0FBF1F0A5FB001086
:1020100040096FF01801484308EB800006EB001000
:10202000A5FB00102168400967F31F108860BDE818
:10203000F081FFF707FB00EBC00101EB00106168C6
:102040008900B0FBF1F0A5FB00104709FFF7FAFA91
:1020500000EBC00101EB001061688900B0FBF1F8F2
:10206000FFF7F0FA00EBC00101EB00106168890096
:10207000B0FBF1F0A5FB001040096FF018014843D8
:1020800008EB800006EB0010A5FB0010216840095A
:1020900067F31F108860BDE8F08100000014014064
:1020A000001001401F85EB512DE9FF4F85B00DF168
:1020B0004C0E0646BEE8BF1FDFF89CE0C6F800E005
:1020C000DDF818E08DF800E0DDF81CE08DF801E0A7
:1020D000DDF820E08DF802E08DF80840DDF848E0FA
:1020E0008DF809508DF804008DF80A708DF80C9069
:1020F0008DF805108DF80DA08DF806208DF80B8059
:102100008DF80EB000248DF803E08DF807308DF8BF
:102110000FC0A0466F463857401C08BF002510D09E
:10212000142000F07DF93957C0F80080C0F8048011
:10213000C0F80880C0F80C800546C0F8108000F098
:102140003FFF06EB8400641C4560102CE3DB09B004
:102150003046BDE8F08F00005839000870B50546DC
:1021600007480024C5F8000005EB840040680028FB
:1021700018BF00F050F9641C102CF5DB284670BD28
:10218000583900082DE9F041002607464FEA0604B9
:1021900007EB840045688DB195F90000401C05D11E
:1021A00009493D22A1F1180000F07AFFA8680068F3
:1021B0006968084018BF0120A0400643641C102C29
:1021C000E6DB3046BDE8F081B03600082DE9FF4F70
:1021D00085B00DF14C0E0646BEE8BF1FDFF89CE04F
:1021E000C6F800E0DDF818E08DF800E0DDF81CE04E
:1021F0008DF801E0DDF820E08DF802E08DF8084070
:10220000DDF848E08DF809508DF804008DF80A706B
:102210008DF80C908DF805108DF80DA08DF8062026
:102220008DF80B808DF80EB000248DF803E08DF84A
:1022300007308DF80FC0A0466F463857401C08BFC6
:10224000002510D0142000F0EBF83957C0F80080BA
:10225000C0F80480C0F80880C0F80C800546C0F8BB
:10226000108000F0C1FE06EB8400641C4560102C59
:10227000E3DB09B03046BDE8F08F000068390008A4
:1022800070B5054607480024C5F8000005EB84003A
:102290004068002818BF00F0BEF8641C102CF5DB65
:1022A000284670BD683900082DE9F04106460F4602
:1022B0005FF0000506EB85004468A4B147FA05F01D
:1022C00000F0010894F90000401C05D109493422AE
:1022D000A1F1180000F0E4FEA088B8F1000F14BFCF
:1022E000E168216908806D1C102DE3DB3046BDE8F4
:1022F000F0810000243700082DE9F0410026074650
:102300004FEA060407EB840045688DB195F900009B
:10231000401C05D109493D22A1F1180000F0C0FE82
:10232000A86800686968084018BF0120A0400643FB
:10233000641C102CE6DB3046BDE8F0812437000831
:10234000007B704770B506460B480D46046884B1A3
:10235000A06858B12A463146FEF731F830B9A06876
:10236000FEF718F8A84201D1204670BD6468002C21
:10237000EED1002070BD0000B801002010B5044669
:10238000406828B1FFF7DCFF012804BF606810BD7A
:10239000002010BD10B50446406810B1FFF7D0FF13
:1023A00008B1002010BD6068002818BF001F10BDD4
:1023B0004068002818BF0120704710B54068002809
:1023C00008BF10BDFFF7BCFF00280CBF0120002094
:1023D00010BD0068704710B50446002020606060A2
:1023E00008782F280DD1487858B14B1C0021236064
:1023F000226810782F2806D038B1491C501C206064
:10240000F6E7204610BD501C20601846FFF79AFFE3
:102410006060204610BD10B500F064FD10BD0000E6
:1024200010B5040007D1012405E0FEF763F9006848
:1024300000B904488047204600F0FCFD0028F4D095
:1024400010BD0000AF0500080FB4024610B504A986
:10245000034B039800F0F0F810BC5DF814FB00008B
:10246000B305000830B414460D46024621462846FE
:1024700030BC014B00F0E0B8B305000802E008C82A
:10248000121F08C1002AFAD170477047002001E0EE
:1024900001C1121F002AFBD1704710B5C168006846
:1024A00000F0C0FC002802DA4FF0FF3010BD002021
:1024B00010BD00002DE9FF5F82B00021DDE904308E
:1024C000020DDDF840B0034318D044F61050A2F2DC
:1024D000FF3242431514119801281FD0A5EB0B00C1
:1024E000401C5FEA000A4FF000064E4FDFF83891BB
:1024F000B046504615D5CAF1000413E011980124E6
:102500004AA3012801D16FEA0B010298119AC0E990
:102510000031C0E9024206B0BDE8F09FCBF10000F7
:10252000DFE704460021404A491842EB0450CDE958
:10253000001012E0E00707D032463B4640464946CD
:10254000FEF7AAF98046894632463B4610461946B0
:10255000FEF7A2F906460F466410002CEAD1DDE929
:102560000401DDE90023BAF1000F06DAFEF794F961
:1025700042464B46FEF790F905E0FEF7FFF942466A
:102580004B46FEF7FBF904460E460022284BFEF7A9
:102590007DFA03D84FF0FF30014607E00022254BBB
:1025A00020463146FEF7D1F8FEF757FA102409E02D
:1025B000002C0ADB0A220023FEF725F8039B3032A9
:1025C0001A55641E50EA0102F2D1641C039AC4F148
:1025D00011031444119A012A03D0012208430DD19A
:1025E0000AE0084304D000204FF0110B119072E76D
:1025F000A3EB0B056D1E0DE05B4504DD4FF0000203
:1026000005F1010504E003DA4FF00002A5F1010530
:10261000002AECD002981199C0E90231C0E90045C6
:1026200079E70000000014400000F03F3000000097
:102630000000F0430000E03F2DE9FF4F95B09A46BF
:10264000884606460025EEE1252877D10024274656
:10265000F94A0121039400E0044316F8013F203BAE
:1026600001FA03F01042F7D130782A2811D06FF028
:102670002F033078A0F13002092A16D8039A44F0CB
:10268000020402EB820203EB42021044761C039028
:10269000EFE758F8042B0392002A03DA504244F47F
:1026A0000054039044F00204761C30782E2816D192
:1026B00016F8010F44F004042A280DD06FF02F0201
:1026C0003078A0F13003092B09D807EB870302EB20
:1026D0004303C718761CF3E758F8047B761C307860
:1026E0006C280FD006DC4C2817D068280DD06A283B
:1026F00014D104E0742810D07A280FD10DE044F4EE
:1027000000140AE044F4801401E044F440147278A8
:10271000824202D104F58014761C761C307866283B
:102720000BD013DC582877D009DC002875D0452859
:10273000F6D04628F4D047281AD193E118E0632850
:1027400035D0642879D0652812D18BE1702873D0F8
:1027500008DC6728F1D069286FD06E280DD06F286B
:1027600006D1ACE073282CD0752874D0782853D0CB
:102770005246179990476D1C54E1C4F30250022849
:1027800009D003280DD0D8F8001004280DD00D6012
:1027900008F1040846E1D8F80010EA17C1E9005230
:1027A000F6E7D8F800100D80F2E70D70F0E718F8A2
:1027B000041B8DF8001000208DF80100EB4601206D
:1027C00003E058F804BB4FF0FF3061074FF0000101
:1027D00002D40DE009F101018946B9420FDA8145C1
:1027E000F8DB1BF809100029F4D108E009F1010118
:1027F00089468142FADB1BF809100029F6D10398BB
:102800005346A0EB090721463846179A00F080FA94
:10281000284400EB090507E044E008E10DE01BF85F
:10282000010B524617999047B9F10109F7D2534667
:1028300021463846179AF2E039E00A21C4F30252E1
:102840004FF0000B0091022A06D058F8040BC11774
:10285000032A09D00AE023E008F1070020F007026C
:10286000F2E80201904605E000B2C117042A01D146
:1028700040B2C117002906DA0A460021404261EB46
:1028800002012D2202E0220504D52B228DF804201E
:10289000012203E0E20701D02022F7E7914657E04A
:1028A0000A2100E010214FF0000B00910BE01021F5
:1028B0004FF0000B44F004040827009103E00820C7
:1028C0004FF0000B0090C4F30252022A05D058F8D2
:1028D000040B0021032A08D008E008F1070020F0CB
:1028E0000702F2E80201904603E080B2042A00D118
:1028F000C0B24FF0000922072AD53278702A07D0DB
:10290000DDF800C08CF0100C5CEA0B0C05D00EE07A
:1029100040228DF80420012208E050EA010306D08D
:1029200030238DF804308DF8052002229146009B5B
:1029300083F0080353EA0B030AD150EA010201D1E4
:10294000620705D530228DF804204FF001097F1E63
:102950003278582A04D039A20C920CAA02920BE0C9
:102960003BA2F9E75B46009AFDF74DFE0C9B9B5C92
:10297000029A521E0292137050EA0102F2D102989A
:1029800004A9081A00F1200B600702D524F4803452
:1029900000E001275F4502DDA7EB0B0000E000200F
:1029A00000EB0B01009003984944401A0390E003A8
:1029B00006D453462146179A039800F0A9F9054416
:1029C000002706E001A85246C05D179990476D1C8C
:1029D0007F1C4F45F6DBE0030CD553462146179A82
:1029E000039800F095F9054404E030205246179909
:1029F00090476D1C0099481E00900029F5DC08E006
:102A00000298029952460078491C02911799904702
:102A10006D1CBBF10001ABF1010BF1DC5BE100F0DF
:102A200065F90544761C307800287FF40DAE19B0A6
:102A30002846BDE8F08F000009280100303132330C
:102A400034353637383961626364656600000000EA
:102A500030313233343536373839414243444546D4
:102A600000000000600700D4062708F1070020F0EE
:102A70000700F0E80223804603F0004C5FEA0C00F8
:102A800001D097A009E0200501D596A005E0E00758
:102A900001D095A001E0AFF24C001390307823F004
:102AA000004365280CD006DC452809D046281DD0F7
:102AB00047287FD13BE0662818D067287AD136E0D6
:102AC0000021112F01DB112000E0781CCDE900016D
:102AD00004A90CA8FFF7EEFCDDE90D010C9A4FF0FC
:102AE000000B07F10109109200914EE04FF00040F9
:102AF0000097CDE9011004A90CA8FFF7DBFCDDE984
:102B00000D020C9B0F994FF0000B91461093009211
:102B100011B9791C00EB0109B7EB090003D4C0F12E
:102B2000FF3B07F10109A9EB0700019042E0012FEB
:102B300000DA01270021112F01DD112000E03846C5
:102B4000CDE9000104A90CA8FFF7B4FCDDE90D01F3
:102B50000C9A00914FF0000BB946109221070FD448
:102B6000009A4A4503DA914601E0A9F10109B9F159
:102B7000010F05DD109AA9F10101515C3029F4D053
:102B8000B84202DA10F1040F03DA0121CDE9011095
:102B900010E0002803DC8344A9EB000102E0411CA3
:102BA000494500DD8946A0EB0B00401C01904FF029
:102BB00000400290200705D40198484502DB4FF001
:102BC000FF30019000208DF84B0002980DF14B076B
:102BD000B0F1004F25D002200C902B200D900298D0
:102BE00000280CDA404202902D200D9007E00A21C7
:102BF0000298FDF7F2FC3031029007F8011D0C99A4
:102C0000481E0C900029F2DC02980028EFD1791EB2
:102C10000D980870307800F0200040F0450007F86B
:102C2000020D11A8C01BC01D02901398007800B1BE
:102C3000012000EB0901019801EBE07102980144C9
:102C40000398401A401E0390E00306D453462146E1
:102C5000179A039800F05CF805441398007818B1AF
:102C60005246179990476D1CE00323D553462146E1
:102C7000179A039800F04CF805441BE0BBF1000FD5
:102C800007DB0098584504DD1098179910F80B00E1
:102C900001E0179930205246904701980BF1010B43
:102CA000401E05F10105019004D12E2052461799CE
:102CB00090476D1CB9F10001A9F10109DEDC05E0C6
:102CC00017F8010B5246179990476D1C0299481E40
:102CD00002900029F4DC53462146179A03989EE699
:102CE0002D0000002B000000200000002DE9F04125
:102CF000044600251E461746880404D405E03946DC
:102D00002020B0476D1C641EF9D52846BDE8F0812F
:102D10002DE9F041044600251E469046C80301D522
:102D2000302700E02027880404D505E041463846D6
:102D3000B0476D1C641EF9D52846BDE8F08100003F
:102D4000F0B50E4683B0044632A1FDF72AFB0028F9
:102D50001CBF0025304F06D057F8250048B16D1C28
:102D6000102DF9D347E02D490868421C0A6003B0D2
:102D7000F0BD102D3FD220783A2811D02146684668
:102D8000FFF729FB6846FFF713FB002833D068469E
:102D9000FFF713FB0028684609D0FFF7FBFA23E092
:102DA0006A461FA12046FDF719FB00981CE0FFF7BB
:102DB000E5FA00B316F0020F18BF02241FD000BFBF
:102DC00016F00C0F18BF44F4007416F0040F18BF6F
:102DD00044F4806406466846FFF7FBFA0146306813
:102DE000224683683046984700281FBF47F82500D1
:102DF000E81C03B0F0BD4FF0FF3003B0F0BD16F09B
:102E0000040F18BF0124DBD116F0080F14BF0924EA
:102E10000024D5E73A74740098020020A001002035
:102E20003A2570000328BCBF00207047064A02EB19
:102E3000800050F80C0C002804BF4FF0FF307047A2
:102E400002681369002218479802002070B51446E2
:102E50000E46032813DA1248006820B90322022123
:102E6000104800F02DFA0025002C06D9715D0D48A0
:102E700000F0D6FA6D1CAC42F8D820460DE00A49A5
:102E800001EB800050F80C0C002804BF4FF0FF301D
:102E900070BD01680B6831469847201A70BD00006C
:102EA000A401002020030020980200200FB4044851
:102EB00010B503AA0299FFF7D5FA012000F002F835
:102EC0008C03002004460548FFF7E7FA0448FFF7A3
:102ED000E4FA002C18BF00F00BF9FEE7780300209D
:102EE0008C03002010B5002821D0114B0022001FB8
:102EF000196803E0814203D80A4649680029F9D1DC
:102F000052B11368841A9C4204D1006818441060BE
:102F1000104602E0506000E0186039B102680B1AF8
:102F2000934203D10B681A4402604968416010BDA6
:102F3000CC01002070B5044690F900000D46401CFD
:102F400004D14322084909A000F0AAF894F900002E
:102F5000012D04D0BDE87040002100F0D9B8BDE8D3
:102F60007040012100F0D4B8943700086F626A2DD8
:102F70003E70696E20213D202850696E4E616D655E
:102F8000294E430070B5054601700C46481C08BF29
:102F900070BDC4F30310FEF735FE0646002120463F
:102FA00000F0B6F804F00F00012101FA00F06860AB
:102FB00006F11000A8600830E860801C286170BD30
:102FC00070B5002605460C46FFF7DCFF601C08BF05
:102FD00070BD00212846FFF7ADFF31462846BDE809
:102FE000704000F023B8000070B504460D4600267E
:102FF000FFF7C8FF681C08BF70BD94F90000401CB3
:1030000005D109493422A1F1180000F049F82169DD
:10301000A088088001212046FFF78CFF314620461A
:10302000BDE8704000F002B8B438000890F9000024
:1030300000F0A4B8F0B50B30154D20F007010024C6
:10304000144A0FE003688B420BD38B4205D95E1AFA
:1030500043184768C3E9006700E04368136002C093
:1030600004E0021D10680028ECD12046002802D19F
:10307000286808B10020F0BD064A07481060074ADA
:10308000121A22F00702C0E9002401202860D7E7C5
:10309000D0010020CC010020A4030020A0070020C4
:1030A00008B500920B46024603A11048FFF7CCF981
:1030B000BDE8084000F01CB86D6265642061737360
:1030C0006572746174696F6E206661696C65643ADB
:1030D0002025732C2066696C653A2025732C206CA2
:1030E000696E65202564200A000000008C03002022
:1030F00072B6962000F03CFA962000F039FAF8E714
:10310000704710B5FEF7B8FDBDE81040FEF7B8B83F
:10311000F0B5054685B00C46401C04D15622104936
:1031200010A0FFF7BDFF04F00F07C4F30216C5F3AC
:103130000310C4F3C31405F00F05FEF763FD01216E
:10314000A94000910C4951F82710CDE9011603213F
:10315000CDE903146946FDF761FF05B0F0BD00003D
:103160004438000870696E20213D202850696E4E59
:10317000616D65294E430000F037000870B50546C3
:103180000C46401C04D17A220C490DA0FFF788FFA1
:10319000C5F3031005F00F05FEF734FD022C88BFC0
:1031A0000024C268690003238B409A43C260C2684E
:1031B00004FA01F11143C16070BD000044380008F9
:1031C00070696E20213D202850696E4E616D652921
:1031D0004E430000884208BF7047421C04BF0846A7
:1031E000704710B5491C08BF10BD03A0FFF75EFE75
:1031F0004FF0FF3010BD000070696E6D6170206D82
:1032000069732D6D617463680000000010B5421C85
:1032100004BF4FF0FF3010BD91F90020521C0BD0BD
:1032200091F90020824203D14C68601C09D105E06D
:1032300011F90C2F521CF3D14FF0FF3402A0FFF70D
:1032400035FE204610BD000070696E6D6170206E05
:103250006F7420666F756E6420666F722070657281
:103260006970686572616C0010B50446401C08BF47
:1032700010BD91F90000401C12D000BF91F9000070
:10328000A04209D189682046FFF742FF2046BDE8E9
:1032900010400021FFF772BF11F90C0F401CEDD157
:1032A000BDE8104001A0FFF701BE0000636F756C20
:1032B00064206E6F742070696E6F7574000000007A
:1032C0002DE9F04789460446164645494846FFF72A
:1032D0009DFF054643493046FFF798FF01462846C3
:1032E000FFF778FF2060401C04D15F223E493FA0D9
:1032F000FFF7D6FE216800254348A1F18042B2F5D0
:10330000883204D1016841F01001016065603F4FCF
:1033100021684FF00108B94206D13D490A6842F4DC
:1033200000320A60C4F804802168A1F18042B2F53D
:103330008A3205D1016841F02001016002206060FD
:1033400027494846FFF790FF26493046FFF78CFF94
:1033500001214846FFF712FF01213046FFF70EFF1B
:103360004FF41650C4E902052561656184F8189090
:103370002848667621680160A1684160E168816043
:103380002169C16061698561016194F91910491C65
:1033900004BF0821416106D094F91810491C0CBFE4
:1033A00004210C2141611B48FEF787FB2068B842CD
:1033B00018BFBDE8F08718481849C0F80080D4E964
:1033C0000130D4E90456D4F80CC02268A4698A6498
:1033D000C1E91330C1E91764C1E915C5BDE8F0873B
:1033E000AC350008F43500083C3600086F626A2DE1
:1033F0003E7561727420213D2028554152544E6122
:103400006D65294E430000004438024000440040EE
:1034100040380240E4020020A4010020D80200202D
:10342000074AD0F800C0036813601B68C3F3C013D9
:10343000002BF8D0C1F30800CCF80400704700005E
:10344000E402002070B5134C2068C16811F0020F2F
:1034500005D0016921F00201016100F033F8206814
:10346000C16811F0040F08BF70BD016921F00401AB
:1034700001612068456A084E3068281AB0F57A7FE5
:1034800038BF70BDFDF7F4FE216805F57A708863DA
:10349000356070BD5C020020940100200348006884
:1034A000016921F002010161704700003C03002026
:1034B00003480068C16821F00201C1607047000044
:1034C0003C03002010B5FFF7E9FF0D4C206870B1F8
:1034D00000F018F821680A68101A00280BDC8868C8
:1034E00020606268002A1CBF48689047EEE7BDE88C
:1034F0001040FFF7DDBF0868BDE8104000F01AB8C3
:10350000AC010020074810B5016839B901210160FC
:103510000649054808600020FDF7CCFE0448006815
:1035200010BD0000B4010020000C00403C0300204E
:10353000240C0040034909684863C86840F0020051
:10354000C86070473C030020DFED080A70B520EE2C
:10355000200ABDEEC00A10EE104AFFF7D3FF054661
:10356000FFF7D0FF401BA042FAD370BD002474497E
:1035700070B54FF47A7100FB01F5FFF7C3FF044605
:10358000FFF7C0FF001BA842FAD370BD0000000087
:1035900001020304010203040607080900000000F9
:1035A00000000000010203040607080902000000F1
:1035B0000044004093030000090000000010014097
:1035C000930300000B0000000014014013040000EE
:1035D00016000000001001409303000026000000C8
:1035E0000014014013040000FF000000FFFFFFFF74
:1035F00000000000030000000044004093030000AE
:103600000A00000000100140930300000C000000BD
:1036100000140140130400001700000000100140D6
:103620009303000027000000001401401304000071
:10363000FF000000FFFFFFFF00000000433A5C773F
:103640006F726B5C6D6265645C6769746875625CFF
:103650006C69627261726965735C6D6265645C74E9
:103660006172676574735C68616C5C544152474574
:10367000545F53544D5C5441524745545F4E55433B
:103680004C454F5F4634303152455C736572696119
:103690006C5F6170692E63006F626A2D3E70696EA7
:1036A00020213D202850696E4E616D65294E4300F2
:1036B000633A2F776F726B2F6D6265642F62756945
:1036C0006C645C6D6265645C5441524745545F4E66
:1036D00055434C454F5F4634303152455C5441525E
:1036E0004745545F53544D5C5441524745545F4ED7
:1036F00055434C454F5F4634303152452F67706912
:103700006F5F6F626A6563742E6800006F626A2D76
:103710003E70696E20213D202850696E4E616D65B6
:10372000294E4300633A2F776F726B2F6D62656489
:103730002F6275696C645C6D6265645C54415247CC
:1037400045545F4E55434C454F5F463430315245EA
:103750005C5441524745545F53544D5C5441524769
:1037600045545F4E55434C454F5F463430315245CA
:103770002F6770696F5F6F626A6563742E680000FF
:1037800070696E20213D202850696E4E616D65295B
:103790004E430000433A5C776F726B5C6D62656408
:1037A0005C6769746875625C6C6962726172696594
:1037B000735C6D6265645C746172676574735C6888
:1037C000616C5C5441524745545F53544D5C5441C5
:1037D000524745545F4E55434C454F5F4634303158
:1037E00052455C6770696F5F6170692E630000000D
:1037F00000000000010000001100000002000000B5
:103800001200000003000000000011100000211051
:1038100000003110000012100000221000003210D1
:1038200050696E6D6170206572726F723A207772A6
:103830006F6E6720706F7274206E756D6265722E88
:1038400000000000433A5C776F726B5C6D626564E8
:103850005C6769746875625C6C69627261726965E3
:10386000735C6D6265645C746172676574735C68D7
:10387000616C5C5441524745545F53544D5C544114
:10388000524745545F4E55434C454F5F46343031A7
:1038900052455C70696E6D61702E63006F626A2DB7
:1038A0003E70696E20213D202850696E4E616D6525
:1038B000294E4300633A2F776F726B2F6D626564F8
:1038C0002F6275696C645C6D6265645C544152473B
:1038D00045545F4E55434C454F5F46343031524559
:1038E0005C5441524745545F53544D5C54415247D8
:1038F00045545F4E55434C454F5F46343031524539
:103900002F6770696F5F6F626A6563742E6800DD90
:10391000DDDDDDDCBBBBDDDDDDDDDDDDDDDDDD9861
:10392000888888888888887777777777888888856F
:1039300055555666666666666666666668888883F6
:1039400033333222222222222222222228888D0070
:1039500000000000000000005D21000800000000E1
:1039600000000000000000008122000800000000AC
:103970009439000894010020400000007C240008D5
:10398000D4390008D4010020CC0500008C240008A4
:10399000F5C8FFFF000000000000000000BD0105A9
:1039A0000000000000000000000000000000000017
:1039B0000000000000000000000000000000000007
:1039C00000000000000000000000000000000000F7
:0439D00000000000F3
:040000050800019559
:00000001FF
